:02000002B0004C
:1040000000400B00FEA40B00000006000C0005029F
:0840100004018C130000000004
:0440180040900B00C9
:1040200081F0004102E000BF83F0004330B54FEA69
:1040300041044FEA430594EA050F08BF90EA020FD6
:104040001FBF54EA000C55EA020C7FEA645C7FEA69
:10405000655C00F0E2804FEA5454D4EB5555B8BF8C
:104060006D420CDD2C4480EA020281EA030382EAFD
:10407000000083EA010180EA020281EA0303362D8F
:1040800088BF30BD11F0004F4FEA01314FF4801C62
:104090004CEA113102D0404261EB410113F0004F74
:1040A0004FEA03334CEA133302D0524263EB43032B
:1040B00094EA050F00F0A780A4F10104D5F1200EC9
:1040C0000DDB02FA0EFC22FA05F2801841F1000124
:1040D00003FA0EF2801843FA05F359410EE0A5F1F8
:1040E00020050EF1200E012A03FA0EFC28BF4CF029
:1040F000020C43FA05F3C01851EBE37101F00045DF
:1041000007D54FF0000EDCF1000C7EEB00006EEBEB
:104110000101B1F5801F1BD3B1F5001F0CD3490875
:104120005FEA30004FEA3C0C04F101044FEA4452CC
:1041300012F5800F80F09A80BCF1004F08BF5FEA53
:10414000500C50F1000041EB045141EA050130BD33
:104150005FEA4C0C404141EB0101013C28BFB1F545
:10416000801FE9D291F0000F04BF01460020B1FA90
:1041700081F308BF2033A3F10B03B3F120020CDA63
:104180000C3208DD02F1140CC2F10C0201FA0CF041
:1041900021FA02F10CE002F11402D8BFC2F1200CA6
:1041A00001FA02F120FA0CFCDCBF41EA0C0190405C
:1041B000E41AA2BF01EB0451294330BD6FEA0404A5
:1041C0001F3C1CDA0C340EDC04F11404C4F1200290
:1041D00020FA04F001FA02F340EA030021FA04F3A2
:1041E00045EA030130BDC4F10C04C4F1200220FAF9
:1041F00002F001FA04F340EA0300294630BD21FA37
:1042000004F0294630BD94F0000F83F4801306BFFC
:1042100081F480110134013D4EE77FEA645C18BFF0
:104220007FEA655C29D094EA050F08BF90EA020F87
:1042300005D054EA000C04BF1946104630BD91EA7F
:10424000030F1EBF0021002030BD5FEA545C05D182
:104250004000494128BF41F0004130BD14F58004C1
:104260003CBF01F5801130BD01F0004545F0FE4135
:1042700041F470014FF0000030BD7FEA645C1ABF6A
:10428000194610467FEA655C1CBF0B46024650EAA1
:10429000013406BF52EA033591EA030F41F40021CD
:1042A00030BD00BF90F0000F04BF0021704730B553
:1042B0004FF4806404F132044FF000054FF0000128
:1042C00050E700BF90F0000F04BF0021704730B5E9
:1042D0004FF4806404F1320410F0004548BF4042BE
:1042E0004FF000013EE700BF42004FEAE2014FEA13
:1042F00031014FEA02701FBF12F07F4393F07F4FEE
:1043000081F06051704732F07F4208BF704793F0F0
:104310007F4F04BF41F40021704730B54FF4607403
:1043200001F0004521F000411CE700BF50EA010206
:1043300008BF704730B54FF000050AE050EA0102AF
:1043400008BF704730B511F0004502D5404261EB1F
:1043500041014FF4806404F132045FEA915C3FF460
:10436000D8AE4FF003025FEADC0C18BF03325FEAFD
:10437000DC0C18BF033202EBDC02C2F1200300FAAE
:1043800003FC20FA02F001FA03FE40EA0E0021FAD3
:1043900002F11444BDE600BF70B54FF0FF0C4CF4C1
:1043A000E06C1CEA11541DBF1CEA135594EA0C0F73
:1043B00095EA0C0F00F0DEF82C4481EA030621EAAE
:1043C0004C5123EA4C5350EA013518BF52EA0335E9
:1043D00041F4801143F4801338D0A0FB02CE4FF09B
:1043E0000005E1FB02E506F00042E0FB03E54FF0CB
:1043F0000006E1FB03569CF0000F18BF4EF0010EC3
:10440000A4F1FF04B6F5007F64F5407404D25FEABE
:104410004E0E6D4146EB060642EAC62141EA555171
:104420004FEAC52040EA5E504FEACE2EB4F1FD0CB3
:1044300088BFBCF5E06F1ED8BEF1004F08BF5FEA31
:10444000500E50F1000041EB045170BD06F00046E3
:1044500046EA010140EA020081EA0301B4EB5C0490
:10446000C2BFD4EB0C0541EA045170BD41F4801188
:104470004FF0000E013C00F3AB8014F1360FDEBFAD
:10448000002001F0004170BDC4F10004203C35DA89
:104490000C341BDC04F11404C4F1200500FA05F30C
:1044A00020FA04F001FA05F240EA020001F00042AD
:1044B00021F0004110EBD37021FA04F642EB060123
:1044C0005EEA430E08BF20EAD37070BDC4F10C044D
:1044D000C4F1200500FA04F320FA05F001FA04F211
:1044E00040EA020001F0004110EBD37041F10001FD
:1044F0005EEA430E08BF20EAD37070BDC4F1200508
:1045000000FA05F24EEA020E20FA04F301FA05F26F
:1045100043EA020321FA04F001F0004121FA04F217
:1045200020EA020000EBD3705EEA430E08BF20EAE7
:10453000D37070BD94F0000F0FD101F00046400021
:1045400041EB010111F4801F08BF013CF7D041EAA3
:10455000060195F0000F18BF704703F000465200A7
:1045600043EB030313F4801F08BF013DF7D043EA78
:104570000603704794EA0C0F0CEA135518BF95EA2E
:104580000C0F0CD050EA410618BF52EA4306D1D1B5
:1045900081EA030101F000414FF0000070BD50EAD4
:1045A000410606BF1046194652EA430619D094EA5E
:1045B0000C0F02D150EA013613D195EA0C0F05D148
:1045C00052EA03361CBF104619460AD181EA03019C
:1045D00001F0004141F0FE4141F470014FF0000054
:1045E00070BD41F0FE4141F4780170BD70B54FF0EF
:1045F000FF0C4CF4E06C1CEA11541DBF1CEA13556F
:1046000094EA0C0F95EA0C0F00F0A7F8A4EB050450
:1046100081EA030E52EA03354FEA013100F0888047
:104620004FEA03334FF0805545EA131343EA126310
:104630004FEA022245EA111545EA10654FEA0026C5
:104640000EF000419D4208BF964244F1FD0404F57E
:10465000407402D25B084FEA3202B61A65EB0305DA
:104660005B084FEA32024FF480104FF4002CB6EB97
:10467000020E75EB030E22BFB61A754640EA0C0017
:104680005B084FEA3202B6EB020E75EB030E22BF57
:10469000B61A754640EA5C005B084FEA3202B6EB98
:1046A000020E75EB030E22BFB61A754640EA9C0057
:1046B0005B084FEA3202B6EB020E75EB030E22BF27
:1046C000B61A754640EADC0055EA060E18D04FEAE5
:1046D000051545EA16754FEA06164FEAC30343EA85
:1046E00052734FEAC2025FEA1C1CC0D111F4801F52
:1046F0000BD141EA00014FF000004FF0004CB6E74B
:1047000011F4801F04BF01430020B4F1FD0C88BFE9
:10471000BCF5E06F3FF6AFAEB5EB030C04BFB6EBF4
:10472000020C5FEA500C50F1000041EB045170BDE7
:104730000EF0004E4EEA113114EB5C04C2BFD4EB14
:104740000C0541EA045170BD41F480114FF0000E98
:10475000013C90E645EA060E8DE60CEA135594EA14
:104760000C0F08BF95EA0C0F3FF43BAF94EA0C0F17
:104770000AD150EA01347FF434AF95EA0C0F7FF48C
:1047800025AF104619462CE795EA0C0F06D152EAE0
:1047900003353FF4FDAE1046194622E750EA4106C4
:1047A00018BF52EA43067FF4C5AE50EA41047FF4D5
:1047B0000DAF52EA43057FF4EBAE12E74FF0FF3C3A
:1047C00006E000BF4FF0010C02E000BF4FF0010C0B
:1047D0004DF804CD4FEA410C7FEA6C5C4FEA430C84
:1047E00018BF7FEA6C5C1BD001B050EA410C0CBFD3
:1047F00052EA430C91EA030F02BF90EA020F002035
:10480000704710F1000F91EA030F58BF994208BF9B
:1048100090422CBFD8176FEAE37040F00100704758
:104820004FEA410C7FEA6C5C02D150EA013C07D1AF
:104830004FEA430C7FEA6C5CD6D152EA033CD3D0FA
:104840005DF8040B704700BF8446104662468C46F4
:104850001946634600E000BF01B5FFF7B7FF002827
:1048600048BF10F1000F01BD4DF808EDFFF7F4FF50
:104870000CBF012000205DF808FB00BF4DF808EDDB
:10488000FFF7EAFF34BF012000205DF808FB00BFFE
:104890004DF808EDFFF7E0FF94BF012000205DF820
:1048A00008FB00BF4DF808EDFFF7CEFF94BF0120D5
:1048B00000205DF808FB00BF4DF808EDFFF7C4FFCE
:1048C00034BF012000205DF808FB00BF4FEA410C17
:1048D0007FEA6C5C02D150EA013C0AD14FEA430CFA
:1048E0007FEA6C5C02D152EA033C02D14FF0000037
:1048F00070474FF0010070474FEA410212F5001275
:1049000015D211D56FF47873B3EB625212D94FEA16
:10491000C12343F0004343EA505311F0004F23FA00
:1049200002F018BF404270474FF00000704750EA55
:10493000013005D111F0004008BF6FF00040704712
:104940004FF00000704700BF4A0011D212F500126C
:1049500011D20DD56FF47873B3EB62520ED44FEAD7
:10496000C12343F0004343EA505323FA02F0704757
:104970004FF00000704750EA013002D14FF0FF3095
:1049800070474FF0000070474FEA4102B2F1E04338
:1049900024BFB3F5001CDCF1FE5C0DD901F0004C26
:1049A0004FEAC0024CEA5070B2F1004F40EB830076
:1049B00008BF20F00100704711F0804F21D113F1A2
:1049C0003872BCBF01F00040704741F480114FEADB
:1049D0005252C2F11802C2F1200C10FA0CF320FA64
:1049E00002F018BF40F001004FEAC1234FEAD32381
:1049F00003FA0CFC40EA0C0023FA02F34FEA4303EB
:104A0000CCE77FEA625307D150EA01331EBF4FF073
:104A1000FE4040F44000704701F0004040F0FE408E
:104A200040F40000704700BF80F0004002E000BF8B
:104A300081F0004142001FBF5FEA410392EA030F89
:104A40007FEA226C7FEA236C6AD04FEA1262D2EBD3
:104A50001363C1BFD218414048404140B8BF5B42D8
:104A6000192B88BF704710F0004F40F4000020F071
:104A70007F4018BF404211F0004F41F4000121F087
:104A80007F4118BF494292EA030F3FD0A2F10102D1
:104A900041FA03FC10EB0C00C3F1200301FA03F10F
:104AA00000F0004302D5494260EB4000B0F5000F32
:104AB00013D3B0F1807F06D340084FEA310102F1F1
:104AC0000102FE2A51D2B1F1004F40EBC25008BFA3
:104AD00020F0010040EA03007047490040EB00006D
:104AE000013A28BFB0F5000FEDD2B0FA80FCACF16E
:104AF000080CB2EB0C0200FA0CF0AABF00EBC2509B
:104B000052421843BCBFD0401843704792F0000F88
:104B100081F4000106BF80F400000132013BB5E7DB
:104B20004FEA41037FEA226C18BF7FEA236C21D051
:104B300092EA030F04D092F0000F08BF08467047B6
:104B400090EA010F1CBF0020704712F07F4F04D184
:104B5000400028BF40F00040704712F100723CBF97
:104B600000F50000704700F0004343F0FE4040F4C1
:104B7000000070477FEA226216BF08467FEA23637F
:104B80000146420206BF5FEA412390EA010F40F46A
:104B9000800070474FF0000304E000BF10F00043B6
:104BA00048BF40425FEA000C08BF704743F096439D
:104BB00001464FF000001CE050EA010208BF7047B8
:104BC0004FF000030AE000BF50EA010208BF70473F
:104BD00011F0004302D5404261EB41015FEA010C54
:104BE00002BF84460146002043F0B64308BFA3F14C
:104BF0008053A3F50003BCFA8CF2083AA3EBC2532E
:104C000010DB01FA02FC634400FA02FCC2F120024C
:104C1000BCF1004F20FA02F243EB020008BF20F083
:104C20000100704702F1200201FA02FCC2F12002E9
:104C300050EA4C0021FA02F243EB020008BF20EADE
:104C4000DC7070477BB972B90029BEBF00204FF0FD
:104C5000004106E008BF00281CBF6FF000414FF084
:104C6000FF3000F0DDB9ADF1080C6DE904CE00298C
:104C700009DB002B1ADB00F06BF8DDF804E0DDE95E
:104C8000022304B07047404261EB4101002B1BDB63
:104C900000F05EF8DDF804E0DDE9022304B04042F4
:104CA00061EB4101524263EB43037047524263EBB5
:104CB000430300F04DF8DDF804E0DDE9022304B021
:104CC000404261EB41017047524263EB430300F005
:104CD0003FF8DDF804E0DDE9022304B0524263EB63
:104CE0004303704753B94AB9002908BF00281CBFC5
:104CF0004FF0FF314FF0FF3000F092B9ADF1080CEA
:104D00006DE904CE00F024F8DDF804E0DDE90223CB
:104D100004B07047D0B50C4B002206460F46FFF793
:104D20003BFBFFF711FE0446FFF7BCFA074B0022DE
:104D3000FFF732FB02460B4630463946FFF774F95F
:104D4000FFF702FE2146D0BD0000F03D0000F0411B
:104D50002DE9F047089D04468E46002B4DD18A422E
:104D6000944669D9B2FA82F252B101FA02F3C2F161
:104D7000200120FA01F10CFA02FC41EA030E9440F2
:104D80004FEA1C48210CBEFBF8F61FFA8CF708FB13
:104D900016E341EA034306FB07F199420AD91CEBEB
:104DA000030306F1FF3080F01F81994240F21C811D
:104DB000023E63445B1AA4B2B3FBF8F008FB103365
:104DC00044EA034400FB07F7A7420AD91CEB04049A
:104DD00000F1FF3380F00A81A74240F2078164446A
:104DE000023840EA0640E41B00261DB1D4400023EF
:104DF000C5E900433146BDE8F0878B4209D9002D53
:104E000000F0EF800026C5E9000130463146BDE8DC
:104E1000F087B3FA83F6002E4AD18B4202D3824246
:104E200000F2F980841A61EB030301209E46002DF5
:104E3000E0D0C5E9004EDDE702B9FFDEB2FA82F24A
:104E4000002A40F09280A1EB0C014FEA1C471FFAA8
:104E50008CFE0126200CB1FBF7F307FB131140EA8F
:104E600001410EFB03F0884208D91CEB010103F15C
:104E7000FF3802D2884200F2CB804346091AA4B21E
:104E8000B1FBF7F007FB101144EA01440EFB00FEF2
:104E9000A64508D91CEB040400F1FF3102D2A64557
:104EA00000F2BB800846A4EB0E0440EA03409CE7F6
:104EB000C6F12007B34022FA07FC4CEA030C20FAA3
:104EC00007F401FA06F31C43F9404FEA1C4900FAC3
:104ED00006F3B1FBF9F8200C1FFA8CFE09FB181140
:104EE00040EA014108FB0EF0884202FA06F20BD9B3
:104EF0001CEB010108F1FF3A80F08880884240F203
:104F00008580A8F102086144091AA4B2B1FBF9F046
:104F100009FB101144EA014100FB0EFE8E4508D941
:104F20001CEB010100F1FF346CD28E456AD90238C6
:104F3000614440EA0840A0FB0294A1EB0E01A142AB
:104F4000C846A64656D353D05DB1B3EB080261EB19
:104F50000E0101FA07F722FA06F3F1401F43C5E9F3
:104F6000007100263146BDE8F087C2F12003D84029
:104F70000CFA02FC21FA03F3914001434FEA1C476B
:104F80001FFA8CFEB3FBF7F007FB10360B0C43EA5D
:104F9000064300FB0EF69E4204FA02F408D91CEB0D
:104FA000030300F1FF382FD29E422DD9023863440B
:104FB0009B1B89B2B3FBF7F607FB163341EA0341AB
:104FC00006FB0EF38B4208D91CEB010106F1FF38FA
:104FD00016D28B4214D9023E6144C91A46EA0046F1
:104FE00038E72E46284605E70646E3E61846F8E683
:104FF0004B45A9D2B9EB020864EB0C0E0138A3E7CC
:105000004646EAE7204694E74046D1E7D0467BE7AC
:10501000023B614432E7304609E76444023842E724
:10502000704700BF034613F8012B002AFBD1181A62
:105030000138704709480A49884208B505D0094A2D
:10504000824202D0121A03F02BFF0748074A0021C0
:10505000121A03F033FF014808BD00BF04E4032027
:10506000CCA20B0008E6032008E60320F0E70320AB
:1050700070B5074E074C02F053FDA41BA408002591
:10508000AC4200D170BD56F8043B98470135F7E7B4
:1050900078A20B00A0A20B0000F024B808B500F025
:1050A0005FF8BDE8084002F0F3BC01F067BA01F018
:1050B00065BA01F06BBA0078B0FA80F04009704729
:1050C000012303707047000013B5054B1B788DF862
:1050D00000303C23044601F0FFFB204602B010BD27
:1050E0000CE6032038B50F4B0F4C104800251D70FF
:1050F00000F0FCFE204600F06BFA204600F0F2F9CA
:1051000040F6B83001F082FA2946204600F0C8F98E
:105110002046012100F0C4F929462046BDE8384068
:1051200000F032BA48E6032050E6032014E60320DC
:1051300038B5046805467CB16368013B63605BB9C0
:10514000236820469B689847A368013BA3601BB96E
:1051500023682046DB689847284638BD00000000D9
:1051600030B599B000F0F6FF714B724A18601368C1
:105170004EF65F21C31A8B425CD96F4B10601888C2
:105180006E4D6F4C02F066FD64282378286040F372
:10519000B9804BB96B4A6C4914A8FFF795FF15A865
:1051A000FFF7C6FF012323702968684C0A2214A860
:1051B00002F06FFA149A664910A8FFF785FF11A84C
:1051C000FFF7B6FF14A802F0D9F9212002F042FD42
:1051D000FFF778F852A3D3E90023FFF7DDF852A3D5
:1051E000D3E90023FFF7D8F8FFF7CEFB062100EE46
:1051F000100A206014A802F05FFA149A554910A80A
:10520000FFF762FF11A8FFF793FF14A802F0B6F9A9
:105210005148002100F044F9002211464E4800F0A8
:1052200083F994ED000A4C48022101F0CFFF4A486F
:1052300000F058F900F08EFF484B494A1860136897
:105240004EF65F21C31A8B425AD91060454800F0D0
:1052500015FE444800F09CFD0221684602F02CFA3D
:10526000404800F00BFE022104A802F025FA3D4858
:1052700000F0B8FC022108A802F01EFA394800F03C
:10528000B7FD02210CA802F017FA374914A802F062
:10529000C0F904A914A802F040FA344902F049FA0E
:1052A0000CA902F03AFA324902F043FA08A902F0D6
:1052B00034FA304902F03DFA694602F02EFA2E49DE
:1052C00002F037FA014610A802F0C6F914A802F05D
:1052D00055F9109A294914A8FFF7F6FE15A8FFF70B
:1052E00027FF10A802F04AF90CA802F047F908A815
:1052F00002F044F904A802F041F9684602F03EF9D0
:1053000019B030BD002B3FF44FAF1D4A0E4914A811
:10531000FFF7DAFE15A8FFF70BFF002343E700BFF6
:105320009402C1D2AF63523F7B14AE47E17AEC3FA7
:105330004CE60320A0E6032004E4032010E603204B
:1053400048E6032054900B0057900B00A4E603207E
:1053500062900B0068900B0050E6032008E60320E3
:105360009CE6032014E603206D900B0077900B0061
:1053700081900B0090900B009F900B00A1900B0070
:105380005E900B0010B5074B074800221A7000F022
:10539000A9FBBDE81040054810230E220F2100F0A4
:1053A0000FB800BF0CE6032014E6032050E60320EC
:1053B000704710B54C210446FFF77BFE204610BD18
:1053C00070B50025044E456006608172427203721A
:1053D00080F82A5070BD00BFE09F0B0013B590F815
:1053E0002A2004460B4662B90191407A114602F028
:1053F00018FC019B2046194602B0BDE8104000F0A1
:1054000027BB012A07D190F82B10002202B0BDE87B
:10541000104000F092BA022A05D1002202B0BDE885
:10542000104000F0CFBA02B010BD13B590F82A209A
:1054300004460B4662B90191407A012102F0F1FB6A
:10544000019B2046194602B0BDE8104000F000BBA9
:10545000012A07D190F82B10402202B0BDE810407D
:1054600000F06BBA022A05D1012202B0BDE810405B
:1054700000F0A8BA02B010BD41F0B001FFF7AEBF16
:1054800038B50C46090941F0100105460231FFF715
:10549000A5FF04F00F012846BDE83840FFF79EBF86
:1054A000012970B5044613D10025E9B22046FFF763
:1054B000E3FF00212046FFF7E3FF8026002120467E
:1054C000FFF7B3FF013EF9D10135082DEDD170BDD5
:1054D000BDE8704002484FF4C072002103F0EEBCFA
:1054E00008E403202DE9F0410E4F04460026F1B2F6
:1054F0002046FFF7C1FF00212046FFF7C1FFB84655
:10550000402518F8011B2046013DFFF78EFF15F0DE
:10551000FF05F6D10136062E07F14007E7D1BDE8B9
:10552000F08100BF08E4032080F8471080F848208D
:10553000704700003F2930B512D82F2A10D89DF8A7
:105540000C0001280DD1012B0AD1D00801EB8010ED
:105550000C4C02F0070103FA01F2235C5A4022547A
:1055600030BDD008074D01EB801102F00702012485
:10557000685C9440E4B2012B0CBF2043A043685404
:10558000EEE700BF08E4032003291CD80F4B80F886
:10559000441053F82120137880F84230537880F873
:1055A0004330937880F84530D37880F846301379CB
:1055B000527903EB830303EB830302EB8303A0F82D
:1055C0004A30012070470020704700BF88E5032063
:1055D000002110B50446FFF7D7FF0123A4F840309F
:1055E00084F8471084F84810A07A194602F008FBA6
:1055F00094F82A30002B7AD1204600F047FAA07A9E
:10560000012102F0FDFAA07A012102F00AFB052037
:1056100000F0FCFFA07A002102F003FB0A2000F05A
:10562000F5FFA07A012102F0FCFA2046AE21FFF737
:10563000D5FE2046D521FFF7D1FE20468021FFF779
:10564000CDFE2046A821FFF7C9FE20462F21FFF7F7
:10565000C5FE2046D321FFF7C1FE20460021FFF7FB
:10566000BDFE20464021FFF7B9FE20468D21FFF701
:10567000B5FE20461421FFF7B1FE2046A621FFF714
:10568000ADFE2046A421FFF7A9FE2046A121FFF789
:10569000A5FE2046C821FFF7A1FE2046DA21FFF72C
:1056A0009DFE20461221FFF799FE20468121FFF73B
:1056B00095FE20468F21FFF791FE2046D921FFF766
:1056C0008DFE2046F121FFF789FE2046DB21FFF702
:1056D00085FE20464021FFF781FE2046AF21FFF7DF
:1056E0007DFE20460121BDE81040FFF7D9BE012B09
:1056F00003D1204600F020F981E7022B7FF47FAF31
:10570000204600F036F97AE72DE9F04F90F8454051
:1057100089B09C42CDE903129DF848809DF84C90D9
:10572000074600F2968090F8462022449A4240F3C1
:10573000908090F843501B1B0F2DDCB253D9B0F86A
:105740004A3090F84210B3FBF1F6ED08B4FBF6F2E4
:1057500015FB03F306FB124413FB02F314FB01F4E5
:105760001C44A3B205930026F3B29D4271D9049A5A
:1057700002EBC303DBB206934FF0000A97F8423006
:105780005FFA8AF18B4262D9334897F84430B7F810
:105790004A2050F82330059803440B4406FB02339B
:1057A000002493F806B0039B1944C9B2069BCDF8B8
:1057B00000901BF0010F03EB040208BFB8FA88F356
:1057C00004F1010414BF43465B09D2B23846E4B287
:1057D0000791FFF7AFFE082C07994FEA5B0BE5D165
:1057E0000AF1010ACAE7DFF870B04FF0000A97F833
:1057F00042205FFA8AF18A422BD31FBF97F84430C8
:105800005BF8233004FB02335B180CBF00269E7943
:10581000039B19440025C9B2049BCDF800905A1986
:10582000F30758BFB8FA88F305F101054CBF4346AA
:105830005B09D2B23846EDB20591FFF77BFE082D29
:1058400005994FEA5606E7D10AF1010ACFE701367A
:105850008AE709B0BDE8F08F88E503200A2913B56F
:1058600004460AD194F8483094F84320134484F84D
:105870004830002384F847301BE00D2919D090F8F8
:105880004130019390F84030009390F848200B4647
:1058900090F84710FFF738FF94F8422094F847300B
:1058A00013440133DBB2C2F14002934284F8473023
:1058B000D8DC012002B010BD704710B5102104469D
:1058C000FFF7F7FB204610BD0EB403B503AB002174
:1058D00053F8042B019301F088FC02B05DF804EB4F
:1058E00003B0704773B5044608462279A36832B105
:1058F000A3B90B4902B0BDE8704001F06DBB094A85
:10590000267B094D0949647B012E18BF2946CDE944
:1059100000140749FFF7D8FF02B070BD054AEFE752
:1059200001A00B009E900B00FD9F0B00F99F0B0048
:1059300017A00B00F09F0B00704737B515461C46AB
:10594000019102F0B5F9019901F0E0F902F0B0F926
:10595000036829469B68984702F0AAF90368214624
:105960009B68984702F0A4F903B0BDE8304001F00D
:10597000D5B938B504460121407A02F041F9E07A00
:10598000012102F03DF9E07A012102F04AF9207B81
:10599000012102F035F9207B012102F042F9207A41
:1059A000012102F02DF9207A012102F03AF904F1E7
:1059B0000D05153415F8010B012102F021F9A5425E
:1059C000F8D138BDF8B504461546007A0E460021D8
:1059D00002F027F92946607A02F023F9E07A0021E3
:1059E00002F01FF904F10D07002546FA05F313F044
:1059F000010118BF012117F8010B013502F011F95F
:105A0000082DF2D1E07A012102F00BF9207A012170
:105A1000BDE8F84002F005B913B50B4C2178BFF38F
:105A20005B8F11F001010BD120460191FFF743FB81
:105A3000019928B1054801F015FC2046FFF740FB0D
:105A4000024802B010BD00BFA8E60320ACE6032068
:105A500038B504460D46FFF7DFFF0B4901F062FC45
:105A6000207A002102F0DDF8FFF7D6FF294601F089
:105A70001FFD207A012102F0D4F8FFF7CDFFBDE829
:105A8000384001F035BC00BFB4E6032010B5012159
:105A90000446407A02F0B4F801210C2002F0B0F87C
:105AA00001210D2002F0ACF8207A012102F0A8F8C3
:105AB000207A012102F0B5F8FFF7AEFFBDE81040F3
:105AC00001F0DABB044B054A1A6000221A71044A3D
:105AD0009A6001229A817047B4E603203CA00B0033
:105AE00080969800024A02600022C28002727047CB
:105AF00000770A0007B50190FFF78EFF019903B008
:105B00005DF804EB01F0D4BCF8B5077804460E4606
:105B1000154617B1012F17D0F8BD02F0C9F861780A
:105B200001F0F4F802F0C4F8036831469B68984726
:105B300002F0BEF8036829469B68984702F0B8F85F
:105B4000BDE8F84001F0EAB80021807802F069F879
:105B500006F07F00FFF7CEFF2846FFF7CBFFA078C7
:105B60003946BDE8F84002F05CB8F8B5077804465D
:105B70000E461FB1012F24D02846F8BD02F098F838
:105B8000617801F0C3F802F093F8036831469B682E
:105B9000984702F08DF801F0C1F802F089F86178B9
:105BA000012201F0B0F802F083F803681B699847FE
:105BB0000028E1D002F07CF803685B699847C5B221
:105BC000F1E70021807802F02CF846F08000FFF722
:105BD00091FF0020FFF78EFF39460546A07802F0BE
:105BE00020F8C9E72DE9F84FF7210746FFF7BDFF79
:105BF000F82180463846FFF7B8FFF921814638463C
:105C0000FFF7B3FF0646386BB7F91230B0F5FA3B31
:105C10004FEAE07E4EF1FF3EDC1703FB0EF20BFB7A
:105C20000422A3FB0B3422441203ABFB0B011C0325
:105C30000BFB0EF542EA1352B7F9143001EB4501A4
:105C40004FEAE37C03FB01F500FB0C55A3FB003C92
:105C500065441B0A43EA05631B19B7F810C042EB01
:105C6000252202F50042A3FB0C350CFB0255EB1775
:105C70006A1053EA65054FF0000400F08180B7F91F
:105C80001AA04FEAEA7C0AFB01F500FB0C55AAFBBF
:105C900000A00544B7F9180000FB0EFCC1170BFB70
:105CA00001CCA0FB0B0BDC444FEA4C4C4CEAD03C43
:105CB000400410EB0A00C6F3071645EB0C0C46EA4D
:105CC000091545EA0831C1F58011B7F9165001F000
:105CD000004646EA51062418C9070C1B0CEBC50CFC
:105CE00040F6354566EB0C06A4FB050105FB0611E5
:105CF000FEF7A8FFB7F92020B7F91E504FEA613C24
:105D0000430B43EAC14302FB0CF6D41703FB0466C2
:105D1000A2FB0324344402FB0CF603FB0466A2FB43
:105D200003231E44530E43EAC6131B184FEAE572C1
:105D300005FB01F4864641EB666602FB0041A5FBCC
:105D40000E05B7F91C402944C00C40EA4130181830
:105D50004FEAE47546EBE141000A2D0140EA01609B
:105D600045EA14752401201845EB2121FEF72CFF8C
:105D70009FED050A07EE900A27EE800ABDE8F88F2E
:105D80009FED020AFAE700BF0000803B0000000020
:105D900008B5FFF727FFDFED147AC0EE277A17EE7C
:105DA000900AFEF7A1FA9FED0C1B41EC100B01F0DD
:105DB000EBFF0E4B51EC100B0022FEF735F908A358
:105DC000D3E90023FEF7E8FAFEF7DEFD00EE100A45
:105DD00008BD00BFAFF30080C5C551B9895AC83F9F
:105DE00000000060C662E6C080E6C5470000F03FE4
:105DF00070B5FD210446FFF7B8FEFE210646204699
:105E0000FFF7B3FEB4F92830216BB4F92A2040EA39
:105E100006201B05A1F59635C3EB803305FB123335
:105E200003F58043DA1394F8263094F82C106B4372
:105E30006943DB12891203F500434B439B12B4F90B
:105E4000241003F500134B4303F500539B135343F6
:105E5000DA1394F822105243D2114A43A3EB2213CF
:105E600023EAE373B3F1C85FA8BF4FF0C8531B1315
:105E700000EE103ABAEECB0A70BD000038B5FA2138
:105E80000446FFF772FEFB2105462046FFF76DFE34
:105E9000FC210201204642EA0535FFF766FE6389D0
:105EA0009FED110AC0F3071040EA0501C3EB211270
:105EB0005B00C3EBE103B4F90C10594302FB02F39E
:105EC000B4F90E201B1353439B1303EBE12323630D
:105ED00003EB830380331B1207EE903AF8EEE77A68
:105EE00087EE800A38BD00BF0000C84238B505788B
:105EF0000446002D00F0FC80012D00F0FE80892179
:105F00002046FFF732FE882105462046FFF72DFE8A
:105F100000EB052060818B212046FFF726FE8A21B9
:105F200005462046FFF721FE00EB0520A0818D21CC
:105F30002046FFF71AFE8C2105462046FFF715FE86
:105F400000EB0520E0818F212046FFF70EFE8E2119
:105F500005462046FFF709FE00EB0520208291212F
:105F60002046FFF702FE902105462046FFF7FDFD83
:105F700000EB0520608293212046FFF7F6FD922179
:105F800005462046FFF7F1FD00EB0520A082952194
:105F90002046FFF7EAFD942105462046FFF7E5FD80
:105FA00000EB0520E08297212046FFF7DEFD9621D9
:105FB00005462046FFF7D9FD00EB052020839921F7
:105FC0002046FFF7D2FD982105462046FFF7CDFD7C
:105FD00000EB052060839B212046FFF7C6FD9A2138
:105FE00005462046FFF7C1FD00EB0520A0839D215B
:105FF0002046FFF7BAFD9C2105462046FFF7B5FD78
:1060000000EB0520E0839F212046FFF7AEFD9E2197
:1060100005462046FFF7A9FD00EB05202084A121BD
:106020002046FFF7A2FDE22184F822002046FFF778
:106030009CFDE12105462046FFF797FD00EB05207A
:10604000A084E3212046FFF790FDE42184F8260098
:106050002046FFF78AFDE52105462046FFF785FD2E
:1060600000F00F0303EB05102085E6212046FFF723
:106070007CFDE52105462046FFF777FDC0F30713B9
:1060800003EB05106085E7212046FFF76EFD002237
:1060900084F82C00F4212046FFF736FD627923793D
:1060A000920002F01C0242EA4312204602F0FC0277
:1060B000F521FFF729FD227A204602F00702F2219E
:1060C000FFF722FDE379A2799B0003F01C0343EA6A
:1060D0004213E278DBB202F0030220461A43F421B5
:1060E000FFF712FD2046D021BDE83840FFF73DBD47
:1060F00001F0DEFD00F0D8FD01E7FFF78DFC01F0B7
:10610000BBF8FFF789FC202101F0ACF9FFF784FC14
:10611000294601F0C5F8FFF77FFC032101F0D4F810
:10612000A078294601F06CFDA078294601F079FDA0
:10613000E5E6000008B5024B1B685B6C019308BDE7
:106140004802030008B5024B1B685B68019308BD59
:106150001802030008B5024B1B685B69019308BD78
:106160001802030008B5024B1B685B68019308BD69
:106170002C02030008B5024B1B689B68019308BD05
:106180002C02030008B5024B1B68DB68019308BDB5
:106190002C02030008B5024B1B681B69019308BD64
:1061A0002C02030008B5024B1B681B6B019308BD52
:1061B0002C02030008B5024B1B68DB68019308BD85
:1061C0002802030008B5024B1B689B69019308BDB8
:1061D0002802030008B5024B1B68DB69019308BD68
:1061E0002802030008B5024B1B681B6A019308BD17
:1061F0002802030008B5024B1B685B6A019308BDC7
:106200002802030008B5024B1B689B6A019308BD76
:106210002802030008B5024B1B68DB6A019308BD26
:106220002802030008B5024B1B681B6B019308BDD5
:106230002802030008B5024B1B685B6B019308BD85
:106240002802030008B5024B1B681B6C019308BDB4
:106250002802030008B5024B1B681B6D019308BDA3
:106260002802030008B5024B1B685B69019308BD57
:106270006402030008B5024B1B689B68019308BDCC
:106280006802030008B5024B1B68DB68019308BD78
:106290006802030008B5024B1B681B68019308BD28
:1062A0003002030008B5024B1B689B68019308BDD0
:1062B0003002030008B5024B1B68DB68019308BD80
:1062C0003002030008B5024B1B681B69019308BD2F
:1062D0003002030008B5024B1B685B69019308BDDF
:1062E0003002030008B5024B1B68DB69019308BD4F
:1062F0003002030008B5024B1B681B6A019308BDFE
:106300003002030008B5024B1B685B6A019308BDAD
:106310003002030008B5024B1B68DB6B019308BD1C
:106320003002030008B5024B1B681B6C019308BDCB
:106330003002030008B5024B1B685B6C019308BD7B
:106340003002030008B5024B1B68DB68019308BDEF
:106350003C02030008B5024B1B681B69019308BD92
:106360003C02030008B5024B1B685B69019308BD42
:106370003C02030008B5024B1B689B69019308BDF2
:106380003C02030008B5024B1B68DB69019308BDA2
:106390003C02030008B5024B1B681B6A019308BD51
:1063A0003C02030008B5024B1B689B6A019308BDC1
:1063B0003C02030008B5024B1B681B6C019308BD2F
:1063C0003C02030008B5024B1B681B68019308BD23
:1063D0004C02030008B5024B1B681B69019308BD02
:1063E0004C02030008B5024B1B685B69019308BDB2
:1063F0004C02030008B5024B1B689B69019308BD62
:106400004C02030008B5024B1B68DB69019308BD11
:106410004C02030008B5024B1B681B6A019308BDC0
:106420004C02030008B5024B1B685B68019308BD72
:106430002002030008B5024B1B685B69019308BD8D
:106440002002030008B5024B1B68DB6C019308BDFA
:106450002002030008B5024B1B685B6D019308BD69
:106460002002030008B5034B1B68D3F88830019362
:1064700008BD00002002030008B5034B1B68D3F8D9
:106480009430019308BD00002002030008B5024BC0
:106490001B685B69019308BD4402030008B5024B09
:1064A0001B681B6A019308BD4402030008B5024B38
:1064B0001B68DB6B019308BD4402030008B5024B67
:1064C0001B685B68019308BD4002030008B5024BDE
:1064D0001B689B68019308BD4002030008B5024B8E
:1064E0001B68DB68019308BD4002030008B5024B3E
:1064F0001B681B69019308BD4002030008B5024BED
:106500001B685B69019308BD4002030008B5024B9C
:106510001B689B69019308BD4002030008B5024B4C
:106520001B68DB69019308BD4002030008B5024BFC
:106530001B681B6A019308BD4002030008B5024BAB
:106540001B681B6B019308BD4002030008B5024B9A
:106550001B685B6B019308BD4002030008B5024B4A
:106560001B681B6C019308BD4002030008B5024B79
:106570001B685B6C019308BD4002030008B5024B29
:106580001B681B68019308BD1C02030008B5024B81
:106590001B685B68019308BD1C02030008B5024B31
:1065A0001B689B68019308BD1C02030008B5024BE1
:1065B0001B685B6A019308BD1C02030008B5024B0F
:1065C0001B68DB6A019308BD1C02030008B5024B7F
:1065D0001B681B6B019308BD1C02030008B5024B2E
:1065E0001B68DB6B019308BD1C02030008B5024B5E
:1065F0001B681B6C019308BD1C02030008B5024B0D
:106600001B685B6C019308BD1C0203000021FFF7AF
:1066100011BF10B5836804460BB901F0AFFBC36826
:106620009847A3681BB1032221462046984720467D
:106630001021BDE81040FEF73CBD10B5836804464C
:1066400013B1032201469847204610BD13B50B46EF
:106650000246D0E900016C4684E8030093E8030099
:1066600082E8030094E8030083E8030002B010BD51
:10667000024800230360FFF75DBD00BFC4E60320AE
:1066800070470020704710B510210446FEF711FD39
:10669000204610BD08B5FFF7F6FF08BD30B5002253
:1066A0004FF69C74026084808D888C800C68858095
:1066B00004600A6030BD10B504460068FFF766FF4D
:1066C000204610BD38B5C468F4B12378022B03D13D
:1066D00004F10C00FFF7EFFF656835B12846FFF7BE
:1066E000ACFF10212846FEF7E4FCA56835B128462A
:1066F000FFF7A3FF10212846FEF7DBFC20461421FC
:10670000BDE83840FEF7D5BC38BD0B6803604B6868
:10671000436013B15A6801325A60704737B5044676
:1067200068460D46FFF7F1FF009B019A2360626007
:10673000002301A801930093FEF7FAFC35B1281D50
:10674000FEF7F6FC08212846FEF7B3FC204603B00E
:1067500030BD826810B50AB901F010FBBDE81040E9
:10676000C368184708B5006800F11001FFF7F1FF92
:1067700008BD826810B50AB901F000FBBDE8104001
:10678000C368184708B5006800F11001FFF7F1FF72
:1067900008BD000038B500230446036010200D46F4
:1067A000FEF783FC28B10123C0E90133024B0360EB
:1067B000C5602060204638BD50A00B0038B50023CE
:1067C00083608B6804460D462BB102229847EB6824
:1067D000E360AB68A360204638BD0000F0B589B027
:1067E00004686846FFF75AFF4FF00203D4E84F2FC2
:1067F000002A03D1C4E8413F0029F7D125D104F193
:106800000C0569462846FFF749FFBFF35B8F01235C
:106810006370002004F10803BFF35B8F53E8006F3F
:1068200043E80002002AF9D1BFF35B8F6EB1FFF796
:1068300009FE78B129463046FFF78BFF3046FFF757
:10684000FCFE10213046FEF734FC6846FFF733FFAC
:1068500009B0F0BD314602A8FFF7B0FFE068B4F917
:10686000105008B102F068FB06901020ADF81C50E3
:10687000FEF71BFC0546E8B1002787601820FEF7ED
:1068800014FC044688B10146876002A8FFF7DEFECB
:10689000049BA268A360059B049206A9E268E360DA
:1068A00004F110000592FFF7F9FE084BEB60084B6E
:1068B0002C60AB6006A8FFF7FEFE02A8FFF7BDFE46
:1068C000002229460348FFF7C5FDB7E765670B00BF
:1068D000E9690B0013660B002DE9F04F8BB00546FC
:1068E0009DF850A00F4690469946FFF7CFFD07AEA2
:1068F000834638BB4FF62E73059005A93046ADF898
:106900001830FFF7CBFE1420FEF7CFFB044648B14A
:10691000022303700123C0E901BB437031460C30F0
:10692000FFF7BCFE2846214640F8044BFFF732FF34
:106930003046FFF7C0FE05A8FFF7BDFE28460BB0A6
:10694000BDE8F08F0C2300241420CDE90844079300
:10695000FEF7ABFB014618B1C0E901440470447076
:1069600004A80391FFF716FF1E4B08930820FEF7BB
:106970009CFB044610B103A9FFF7C7FE00965FFA1F
:106980008AF34A46414638460994FFF787FDB8B96D
:10699000039B5B7803F0FF0293B94FF69C7305A944
:1069A00003A80592ADF81830FFF718FF05A8FFF708
:1069B00082FE05A80999FFF7B1FE06A8FEF7B8FB0D
:1069C00003A905A8FFF7A1FE059B069A2B606A6044
:1069D000002306A806930593FEF7AAFB04A8FEF77A
:1069E000A7FBABE7656A0B00012AF8B5054603D1A2
:1069F0000B6803600020F8BD022A10D0032AF9D1E9
:106A00000468002CF6D004F11000FFF754FE204675
:106A1000FFF713FE18212046FEF74BFBEAE718208C
:106A20000E68FEF742FB044650B13146FFF7C6FE42
:106A30003069B6F9147008B102F07EFA2061A782BD
:106A40002C60D7E738B5002383608B6804460D4679
:106A50002BB102229847EB68E360AB68A360204645
:106A600038BD0000F0B589B004460D4601A81146B6
:106A7000FFF754FEA4B124B21DB1284602F05CFA1F
:106A8000054601A803A90395ADF81040FFF7A6FE3F
:106A900003A8FFF710FE02A8FEF74AFB09B0F0BDFD
:106AA000019D0123D5E84F2F002A03D1C5E8413FBE
:106AB0000029F7D1EFD12B73BFF35B8F6B702B1DC8
:106AC000BFF35B8F53E8006F43E80042002AF9D11F
:106AD000BFF35B8F002EDED02046FFF7B3FC0746E6
:106AE00060B105F10C013046FFF743FE3046FFF779
:106AF000A4FD10213046FEF7DCFACCE7314603A8AE
:106B0000FFF7A0FF2B7B8DF81C301020FEF7CDFA8D
:106B10000546D0B187601420FEF7C7FA044678B165
:106B20008760014603A8FFF791FD059BA268A3605B
:106B3000069B0592E268E3609DF81C300692237480
:106B4000064BEB60064B2C60AB6003A8FFF775FDAE
:106B5000002229460348FFF77DFCC7E785670B0045
:106B6000696B0B0013660B00012A70B5044603D154
:106B70000B680360002070BD022A0CD0032AF9D1F3
:106B80000468002CF6D02046FFF757FD142120465C
:106B9000FEF78FFAEEE714200E68FEF786FA054638
:106BA00020B13146FFF74EFF337C2B742560E1E7BF
:106BB000002240681146FFF7B9BC00224068114628
:106BC000FFF7C4BC40680022FFF7B8BC4068002251
:106BD00081F00101FFF7A2BC002340681A46194664
:106BE000FFF794BC002340681A461946FFF786BC9D
:106BF000002240681146FFF779BC00224068114628
:106C0000FFF764BC406800220221FFF767BC002345
:106C100040681A46FFF752BC024B03225A60024AF0
:106C20001A607047C8E603206CA00B007047F8B5E7
:106C3000064615460C468F18BC4206D0336814F839
:106C4000011B9B6830469847F6E72846F8BD007C54
:106C50000022FFF7C7BA007C0021FFF7CBBA007C07
:106C60000021FFF7CFBA007C0021FFF7D3BA007CE8
:106C70000021FFF7D7BA10B514210446FEF719FA20
:106C8000204610BD10B54FF47A7304460846002123
:106C9000C4E90113034B236020741146FFF7D2FAB5
:106CA000204610BDA8A00B000023007C1A46194600
:106CB000FFF780BA7FB500221423CDE90122ADF899
:106CC00004300B788DF808304B680393CB6804933D
:106CD000007C0B7A059301A9FFF7BCFA07B05DF8B9
:106CE00004FB1FB5003B8DF800104FF064010391C9
:106CF00018BF0123694601928DF80830FFF7DAFFCB
:106D000005B05DF804FB0123FFF7EBBF007C002218
:106D1000FFF758BA007C0022FFF75CBA0121FFF7A9
:106D2000F9BF704710B518210446FEF7C2F9204696
:106D300010BDF0B5037D062B8DB00E4600F10407A3
:106D40004FF0000412D000F1080515F8011D0A22C9
:106D5000304600F054F9AF42044419D0002CF4D06E
:106D60002E21304600F03CF90444EEE72F236A461A
:106D700039460A208DF80040FFF774FA6846FEF79E
:106D800051F933680246DB68694630469847044645
:106D900020460DB0F0BD000010B5054B0446112291
:106DA00040F8043B002102F089F8204610BD00BFE6
:106DB000D0A00B000346074A10B543F8042B01F19D
:106DC000100251F8044B43F8044B9142F9D10A7870
:106DD0001A7010BDD0A00B0010B59DF8084044EA11
:106DE000032343EA024242EA01610423416003753E
:106DF00010BD000007B5064B0360CB7800938B787D
:106E00004A780978FFF7E8FF03B05DF804FB00BF9C
:106E1000D0A00B00014B024A1A607047D0E6032055
:106E2000DCA00B00002340681A46FFF747BB406810
:106E300000220221FFF752BB002240681146FFF7F3
:106E400045BB002240681146FFF750BB0023406855
:106E50001A461946FFF752BB002340681A461946E6
:106E6000FFF754BB40680021FFF778BB4068002162
:106E7000FFF77CBB4068002281F00101FFF74EBBA9
:106E800040680022FFF75ABB002240681146FFF716
:106E90005DBB002240681146FFF748BB2DE9F04377
:106EA00095B014460D460746FFF776FF00211C22D9
:106EB0000DA8009102F002F840230C9320466B4687
:106EC0000CAA0021FFF7DEF9044600284BD1024648
:106ED00001216868FFF70AFB0221804622466868A4
:106EE000FFF704FB009E81462146002E3BD000297F
:106EF00039D17368022B03D00A2B11D0F669F4E75D
:106F0000B8F1000FFAD0716906A8043107ADFFF798
:106F100071FF0FCD3C1D0FC42B6823704146EDE778
:106F2000B9F1000FEAD07469102201A801F0C6FF80
:106F300006238DF8143001AD04F1080318341868E5
:106F400059682A4603C20833A3421546F7D101A95E
:106F500006A807ADFFF72EFF0FCD3C1D0FC42B6811
:106F600023704946CAE70098FFF784F9384615B000
:106F7000BDE8F083024B034A1A6000225A60704752
:106F8000D4E60320E8A00B00F8B506460D468F189E
:106F90000024BD420CD0336815F8011B9B683046B5
:106FA0009847031E01DB1C44F3E7002C08BF1C4676
:106FB0002046F8BD13B50446084659B10191FEF7C5
:106FC00031F823680199DB680246204602B0BDE82B
:106FD0001040184702B010BD08B5FFF7EBFF08BD21
:106FE00003689B68184738B50D210546FFF7F8FF81
:106FF0000A2104462846FFF7F3FF204438BD30B588
:107000008BB00023012A8DF8243098BF0A2209ACE6
:107010000D46B1FBF2F101FB125303F0FF03092B04
:1070200094BF30333733DBB2AA4204F8013DEFD9C5
:107030002146FFF7BFFF0BB030BD00002DE9F74F31
:1070400055EC104B06460F4610EE102A10EE100AB3
:107050002B462946FDF73AFC40B153493046FFF72D
:10706000A9FF8246504603B0BDE8F08F25F00049E5
:107070004E4B4FF0FF3220464946FDF727FC48B9FA
:107080004A4B4FF0FF3220464946FDF701FC08B954
:107090004749E3E7474B4FF0604220462946FDF75A
:1070A0000BFC08B14449D9E7444B4FF060422046FD
:1070B0002946FDF7E3FB0028F4D1002200232046F7
:1070C0002946FDF7DBFBD0B12D213046FFF788FFC5
:1070D00005F1004382461D463949DFF8EC904FF038
:1070E000000B00204FF000085FFA8BF39F4208D995
:1070F00042464B46FDF77AFA0BF1010BF4E7824664
:10710000EAE722462B46FCF791FF0D460446FDF7C1
:107110001BFC8046FDF7C6F802460B462046294672
:10712000FCF782FF0A2204460D4630464146FFF72F
:1071300066FF8244002F95D02249DFF88C903046BC
:10714000FFF738FF4FF000088244002F8AD04246F4
:107150004B4620462946FDF71FF904460D46FDF72C
:10716000CBFBB0F1000B1CDA2D213046FFF738FFC6
:10717000CBF1000103460A2230460193FFF73FFF9F
:10718000019B184482445846FDF79CF802460B4682
:1071900020462946FCF748FF013F04460D46FFB252
:1071A000D3E759460023E6E71CA10B00FFFFEF7F62
:1071B00020A10B00FFFFEF4124A10B00FFFFEFC157
:1071C0000000E03F28A10B000000244038B5044631
:1071D00010EE100ACDB2FDF787F841EC100B2946EE
:1071E0002046BDE83840FFF729BF2DE9F04186B0C1
:1071F00000AF05460E46381D142114463B60FFF7CC
:10720000D5F913280ED8391D2846FFF7D3FE0446BA
:107210001EB12846FFF7E7FE044420461837BD4656
:10722000BDE8F08100F1080323F00703E846ADEB69
:10723000030D2246411C3B686846FFF7B7F96946D3
:107240002846FFF7B7FE0446C546E1E7014B00229A
:107250009A607047DCE603200021FFF76BB800213D
:10726000FFF760B810B5044608462170FFF73AF8FA
:1072700000236360204610BD13B504460078FFF775
:10728000EEFF58B9207801904FF6FF71FFF702F832
:10729000019802B0BDE81040FFF7DEBF02B010BD9C
:1072A00013B5044600780191FFF7D9FF019948B959
:1072B00020780190FEF7F6FF019802B0BDE810407B
:1072C000FFF7CABF02B010BD13B5044600780191A4
:1072D000FFF7C5FF019948B920780190FEF7EAFF52
:1072E000019802B0BDE81040FFF7B6BF02B010BD74
:1072F0000078FFF7B1BF0000400830B518600024E7
:1073000018688842E5B206D90134082C02D040083A
:107310001860F5E70725024B5B5D137030BD00BFB9
:107320002AA10B002DE9F04306468FB000780C46E9
:10733000FFF795FF00281BDB35781422002109A8F0
:1073400001F0BCFD0B23002209A92846ADF824302A
:10735000FEF7D8FF9DF82D3013B19DF82C5055B194
:107360000027B946B846012523795DB1C3B1002095
:107370000FB0BDE8F083DDF830809DF834909DF8C3
:107380003570F1E7002B35D1A368434508D18DF85E
:1073900020908DF82170BDF82020A3899A42E6D074
:1073A0000023A1688DF80F300A9804AB0DF10F028D
:1073B000FFF7A2FF217985B989B9A36843450ED3A8
:1073C0008DF820908DF82170BDF82020A3899A4275
:1073D00005D1049B434502D1C9E70029F9D1002317
:1073E0000193637B00939DF80F20237B3078FEF799
:1073F00091FFBCE7CDE900552B462A460121F5E770
:107400002DE9F04188B000230446007802930E462F
:107410001746FFF724FF054600BB94F8008001469D
:10742000142203A801F04AFD0B232A4603A9404673
:10743000ADF80C30FEF766FF04988DF8075002ABEC
:107440000DF1070207FB06F1FFF756FF20789DF8C4
:107450000710FEF737FF2078FFF7FEFE029808B00E
:10746000BDE8F08138B5044600780D46FFF7F7FE19
:107470000346D0B9616899B10C4A12F8010B8542F4
:1074800002D00133082BF8D10133DBB20122D940FD
:107490002046FFF7B5FF2078BDE83840FFF7DCBE97
:1074A00020782946FEF70EFFF5E738BD2AA10B002C
:1074B00008B50078FEF70EFFC0B208BD2DE9F14F08
:1074C00057EC106B80460C4610EE100A0022002389
:1074D0003946FDF7D3F928B107F100431F462D23A4
:1074E00004F8013B00234FF001090A22D9B2884574
:1074F00003D902FB09F90133F8E74846FCF7E2FE3D
:1075000032463B46FCF748FF06460F46FDF702FCB5
:107510008A4605468B46FCF709FF02460B46304675
:107520003946FCF781FD144B0022FDF7BBF910B181
:1075300001354AF1000B4A462846D3175946FDF754
:10754000D1FB0123154621460A2200F044FAB8F186
:10755000000F0ED02046FDF765FD2E232118235481
:107560000A2243460131284601B0BDE8F04F00F041
:1075700032BA01B0BDE8F08F0000E03F10B504461C
:107580000068FFF703F8204610BD10B504460068F8
:1075900008B1FEF7FBFF0023C4E90133236010BDEF
:1075A00038B504460D4600680131FEF7F7FF10B10B
:1075B000C4E90005012038BD10B50368044623B1B5
:1075C00043688B4201D3012010BD2046FFF7E8FF3E
:1075D0000028F9D0A368002BF5D122681370F2E7D8
:1075E00037B50D46114601920446FFF7E5FF019AB3
:1075F00028B92046FFF7C9FF204603B030BDA2607E
:107600002946206801F04CFC2268A3680021D1546F
:10761000F2E7002313B5C0E9003304468360037327
:1076200041B108460191FDF7FDFC01990246204653
:10763000FFF7D6FF204602B010BD884210B50446C1
:1076400005D00B682BB18A681946FFF7C9FF2046A1
:1076500010BDFFF79AFFFAE710B500230446C0E912
:10766000003383600373FFF7E8FF204610BD13B5B6
:10767000044659B108460191FDF7D4FC0199024630
:107680002046FFF7ADFF204602B010BDFFF77DFF9B
:10769000F9E710B504468AB00023C4E90033A360BB
:1076A0002373084601A900F0BBF901A92046FFF7A2
:1076B000DEFF20460AB010BD30B5044600238BB073
:1076C000C4E90033A360237310EE100ACDB2FCF7B7
:1076D0000BFE41EC100B01A92846FFF7EFFE01A9B4
:1076E0002046FFF7C4FF20460BB030BD70B50546FD
:1076F0000E4609B9002070BD6AB184681444214661
:10770000FFF75AFF0028F5D02868AB6831461844C7
:1077100001F00AFCAC600120EDE710B58A68096849
:107720000446FFF7E3FF10B92046FFF72EFF20467F
:1077300010BD13B5044629B92046FFF726FF2046A1
:1077400002B010BD08460191FDF76CFC019902469C
:107750002046FFF7CBFF0028EED0F0E7054B0222D2
:107760001A60054B054A9A600020C3E90000FEF745
:1077700059BE00BFF8E60320ECE603200000FFFF3F
:10778000024B1A68024B1A60704700BF98E503204D
:10779000FCE6032070474174704708B5007CFEF793
:1077A00001FE20EAE07008BD08B5007CFEF7D2FDBE
:1077B00020EAE07008BD08B5007CFEF7DBFD40EA7A
:1077C000E07008BD08B5007CFEF7CCFD40EAE07033
:1077D00008BD007CFEF7D6BD37B5457C04462DB10B
:1077E000207C03B0BDE83040FEF7ACBD007C0191C9
:1077F000FEF7D8FD00280199F2DC284603B030BD21
:1078000010B514210446FDF754FC204610BD0000BD
:1078100010B54FF47A730446084611460022C4E9B5
:107820000123044B2360012320746374FEF7C2FD1F
:10783000204610BD58A10B00417470477047704737
:1078400008B50021007CFEF7D5FD40EAE07008BDD8
:1078500008B50121007CFEF7CDFD40EAE07008BDCF
:1078600008B5007CFEF7BEFD20EAE07008BD08B553
:10787000007CFEF7AFFD20EAE07008BD13B50446BA
:10788000007C0191FEF7AEFD0028019901DC607CCF
:1078900020B1207CFEF7B6FD20EAE07002B010BDFA
:1078A000007CFEF7B7BD10B514210446FDF701FCBE
:1078B000204610BD10B54FF47A73044608460021E7
:1078C000C4E90113044B236001232074637411463F
:1078D000FEF778FD204610BD88A10B0010B51422DC
:1078E0000446002101F0EAFA204610BD10B50F4C05
:1078F00088B003A8FFF7F2FF2178BFF35B8F11F088
:1079000001010FD120460191FDF7D5FB019948B146
:1079100003AA0748FFF7CEFF2046FDF7D1FB054835
:1079200001F0B8FA024808B010BD00BF00E703201C
:1079300004E703203D780B00002240681146FEF763
:10794000D5BD002240681146FEF7F0BD0022406818
:107950001146FEF7FBBD40680022FEF7EFBD406810
:10796000002281F00101FEF7D9BD002340681A46CC
:107970001946FEF7CBBD002340681A461946FEF7AC
:10798000BDBD002240681146FEF7A0BD4068002240
:107990000221FEF7A3BD002340681A46FEF78EBD04
:1079A000024B04225A60024A1A60704718E703200B
:1079B000B8A10B0010B50446FDF734FB01382318BD
:1079C0002046834206D90278197800F8011B03F893
:1079D0000129F6E710BD70B50C46911E22291DD86D
:1079E000254630B9234430229D4210D205F8012BA0
:1079F000FAE7B0FBF2F602FB1600C1B2092894BF09
:107A000030315731C9B205F8011B3046E9E7002390
:107A100020462B70FFF7CEFF204670BD0020FCE70C
:107A200038B5031E0C4615460EDAB3F1004F4FF081
:107A30002D0214BF5842184601230A702A461944E1
:107A4000FFF7C9FF204638BD0123F9E7014B186055
:107A5000704700BFA0E5032008B50B4B43B1FFF70B
:107A600045FF03681B699847002801DDAFF30080DC
:107A7000064B43B100F05CF903681B699847002886
:107A800001DDAFF3008008BD000000000000000031
:107A900008B5FFF7E1FFFEF75DFB014B186008BD7D
:107AA00028E703200548064A064908B5121A01F0DE
:107AB000F7F9054B054A1A6008BD00BF00F4032022
:107AC00004F40320D0A40B0000F403201E1C279A0A
:107AD00007B5002300931A466FF07701FEF7CCFC40
:107AE00003B05DF804FB000007B543880A2B08D0FB
:107AF000502B0BD1094B1B684BB103B05DF804EB65
:107B00001847FFF7E5FF03B05DF804FB002300937F
:107B10001A466FF07701FEF7AFFCF4E724E7032085
:107B200010B512480021FEF769FD114B1A68114B80
:107B30009A42114B0CBF012200221A7001D0FFF7AC
:107B4000B1FFFEF7FFFA044601F0C0F90B4B13B189
:107B50002046AFF3008000210848FEF7A7FCBDE8EF
:107B6000104007480021FEF77DBC00BF4D7A0B0096
:107B700000F403201E1C279A20E7032000000000C9
:107B8000E97A0B00232813B502D9002002B010BDFA
:107B9000A0F10B03022B1AD8174C2178BFF35B8F8F
:107BA00011F001010BD120460191FDF784FA0199F2
:107BB00028B11248FFF756FB2046FDF781FA0F4B1C
:107BC0001878FEF797FB0028DFD10120DEE70128B7
:107BD00009D800F06DF80021007CFEF72BFB80F047
:107BE0000100C0B2D2E709380128EED800F0A0F8B1
:107BF000007CFEF7CFFBF2E7A8E60320ACE603200B
:107C0000232838B504460D460AD8FF2908D0FFF7C7
:107C1000B9FF28B129462046BDE83840FEF7AABA88
:107C200038BD38B504460D46FEF7ACFAFF2810D033
:107C3000062804D84D2323FA00F0C30709D42046B0
:107C4000FFF7A0FF28B129462046BDE83840FEF7DF
:107C5000A1BA38BD0D2810B504469CBF0E34A4B29D
:107C60002046FFF78FFF50B103212046FEF77AFA36
:107C7000032804D12046BDE81040FEF793BA002047
:107C800010BD704738B52025142304460360856075
:107C900005610649284600F06FF8044960602846EF
:107CA00000F06AF8E060204638BD00BFECA10B0090
:107CB00030B50E4D2978BFF35B8F11F0010487B00A
:107CC00011D12846FDF7F7F968B101A8FFF7DAFFEF
:107CD00001AA21460648FEF7D5FF2846FDF7F0F930
:107CE000044801F0D7F8024807B030BD2CE7032064
:107CF00030E70320837C0B007047000038B5044652
:107D000014252A46002101F0D9F82580402507498D
:107D100025812846258200F02FF804496060284616
:107D200000F02AF8E060204638BD00BFECA10B004F
:107D300030B50E4D2978BFF35B8F11F0010487B089
:107D400011D12846FDF7B7F968B101A8FFF7D6FFB2
:107D500001AA21460648FFF75BFD2846FDF7B0F96A
:107D6000044801F097F8024807B030BD44E703200B
:107D700048E70320F97C0B00FDF799B908B5FEF739
:107D80001DFC000000000000F8B52DED028B57EC43
:107D9000106B55EC114B00F0CBF8634BB0EE408A02
:107DA000F0EE608A93F9003001332AD022462B4648
:107DB00020462946FCF78AFD18BB32463B46304632
:107DC0003946FCF783FD002844D1002200233046C9
:107DD0003946FCF749FDD8B1002200232046294648
:107DE000FCF742FD00283DD145EC104B00F010FFA0
:107DF00038B12046294600220023FCF73FFD002829
:107E00005CD1B0EE480AF0EE680ABDEC028BF8BD1A
:107E1000B0EE480AF0EE680A00F0FAFE58B351ECF2
:107E2000180B00220023FCF71FFD0028E9D047ECC7
:107E3000106B00F0EDFE0028E3D045EC104B00F095
:107E4000E7FE0028DDD0FEF7C9FB22239FED2E8B35
:107E50000360D6E72046294600220023FCF704FDF4
:107E60000028CED09FED2A8BB0EE480AF0EE680ACB
:107E7000BDEC028BF8BD47EC106B00F0C9FE00288A
:107E8000CDD045EC104B00F0C3FE0028C7D053EC1A
:107E9000182B18EE100A1946FCF718FD20BBFEF748
:107EA0009DFB034622221A603046394600220023F9
:107EB000FCF7E4FC48B99FED188BA2E7FEF78EFBB8
:107EC00021239FED178B03609BE745EC104B00F0DF
:107ED000B3FE224651EC100B2B46FCF7C5FC0028E4
:107EE000E9D19FED0F8B8CE7FEF778FB0022002392
:107EF0002121016010461946FCF778FB41EC180B74
:107F00007FE700BFAFF3008000000000000000002A
:107F1000000000000000F03F000000000000F07FC3
:107F2000000000000000F0FF9CE5032000000000BE
:107F30002DE9F04F57EC116B2DED0C8B27F0004A1B
:107F40005AEA060287B03DD055EC104B724925F035
:107F50000048884510EE102AA9462CDC11EE103A94
:107F6000BB4636D08A4526DC6B498A4521D0B9F11B
:107F7000000F39DB00210091002B51D1664B9A454F
:107F800000F0A280654B9A4500F0B080BBF1804FB5
:107F900000F0C084624B9B4542D1B9F1000F3FDB3A
:107FA00045EC104B07B0BDEC0C8BBDE8F04F00F07A
:107FB00059BD002BDBD008F1404808F5801858EA7D
:107FC000020309D19FED500B07B0BDEC0C8BBDE84F
:107FD000F08F0CB9C245C7DD524807B0BDEC0C8B21
:107FE000BDE8F04F00F020BE4F498A4500F3858080
:107FF000A1F154718A450FDD4FEA2A51A1F2FF31F8
:10800000142940F39B84C1F1340123FA01F000FAF2
:1080100001F1994200F0ED8400210091002BB1D0D4
:1080200045EC104B029200F0E9FD029A5ABBB8F100
:10803000000F04D0394B29F040429A4223D1BBF1C2
:10804000000F07DA53EC102B34490020FCF7CEFA6E
:1080500041EC100BB9F1000FB6DA009B08F1404873
:1080600008F5801858EA030340F08D8453EC102B78
:1080700010461946FBF7D8FF02460B46FCF7B6FA46
:1080800041EC100BA0E7009A4FEAD973013B04932F
:10809000134335D0254B9A454CDD03F104739A45C3
:1080A000234B40F3DB83984540F36083BBF1000F23
:1080B00040F3608316A3D3E9002310461946FCF76A
:1080C0006BF941EC100B7FE708F1404303F5801397
:1080D00013433FF477AF164B984540F37A83BBF1D7
:1080E000000FC0F2478347EC106B6DE7BBF1000F48
:1080F000C0F21A8445EC104B66E7022100913BE781
:1081000022462B46B4E700BF000000000000F03F0D
:108110009C7500883CE4377E0000F07F0000F03F53
:108120000000E03FF0A10B00FFFF3F430000E041F3
:10813000FFFFEF3FE44B09EA0303002253B951EC80
:10814000100BE24BFCF728F941EC100B10EE908A73
:108150006FF034024FEA2853A3F2FF339A18DC4B36
:108160000592C8F3130848F07F54984544F440142E
:1081700007DDD84B984540F3148401320592A4F5ED
:1081800080149FEDB96B9FEDBA7B53EC162BB0EECC
:1081900047CAF0EE67CA0025B0EE47DAF0EE67DABC
:1081A0005BEC10ABA3465046594643EC1A2BFBF749
:1081B0003BFF53EC1A2B8046894650465946FBF745
:1081C00035FF02460B460020C349FCF70FFA41EC8D
:1081D0001B0B404653EC1B2B4946FCF7DDF841ECEA
:1081E000180B0A460146CDE90212002102916410E3
:1081F0004BEC19AB44F00054DDE902AB04F500236D
:108200000020591904460D4602460B465046594671
:10821000FCF7C2F802460B4640464946FBF704FF0E
:1082200053EC1A2B8046894620462946FBF7FCFE74
:1082300002460B4651EC190BFBF7F6FE52465B4625
:10824000FCF7AAF802460B4640464946FBF7ECFE0F
:1082500053EC1B2BFCF7A0F853EC182B41EC190B3B
:1082600051EC180BFCF798F883A3D3E900230446DC
:108270000D46FCF791F882A3D3E90023FBF7D6FE65
:1082800022462B46FCF788F87FA3D3E90023FBF7AF
:10829000CDFE22462B46FCF77FF87DA3D3E90023D1
:1082A000FBF7C4FE22462B46FCF776F87AA3D3E907
:1082B0000023FBF7BBFE22462B46FCF76DF878A3A4
:1082C000D3E90023FBF7B2FE2246804689462B46BF
:1082D00020462946FCF760F802460B4640464946D0
:1082E000FCF75AF8524604460D465B4651EC180B13
:1082F000FBF79CFE53EC192BFCF74EF822462B465D
:10830000FBF794FE5246804689465B4650465946E6
:10831000FCF742F802460B4643EC1A2B6F4B002247
:10832000FBF784FE42464B46FBF780FE00240D46D9
:1083300022462B4650465946FCF72EF8674B82469C
:108340008B46002220462946FBF76EFE53EC1A2B83
:10835000FBF76AFE02460B4640464946FBF764FEC1
:1083600053EC182BFCF718F822462B4604460D4612
:1083700051EC190BFCF710F802460B462046294633
:10838000FBF754FE8046894642464B4650465946C6
:10839000FBF74CFE44A3D3E90023002004460D461E
:1083A000FBF7FAFF524641EC190B5B462046294683
:1083B000FBF73AFE02460B4640464946FBF734FEC1
:1083C0003BA3D3E90023FBF7E7FF02460B46204619
:1083D000294614461D4638A3D3E90023FBF7DCFFEA
:1083E00002460B4620462946FBF720FE53EC1D2B88
:1083F000FBF71CFE804605988946FBF763FF424663
:1084000082468B464B4651EC190BFBF70FFE53ECA3
:108410001C2BFBF70BFE52465B46FBF707FE524652
:108420005B46002004460D46FBF7FEFD53EC1C2B7B
:10843000FBF7FAFD53EC192BFBF7F6FD02460B4652
:1084400040464946FBF7F0FD009B049A013B13436D
:1084500082468B4640F0B6819FED197BB0EE478A8D
:10846000F0EE678A3CE000BF000000000000F03F33
:108470000000000000000000EF4E454A287ECA3F81
:1084800065DBC9934A86CD3F01411DA96074D13F88
:108490004D268F515555D53FFFAB6FDBB66DDB3F9A
:1084A000033333333333E33F000000E009C7EE3FCB
:1084B000FD033ADC09C7EE3FF5015B14E02F3EBE39
:1084C000000000000000F0BF0000F07F000040430B
:1084D0008E98030079B60B000000F03F00000840C2
:1084E0000023CDE900670093DDE90089304642466C
:1084F0004B463946FBF798FD22462B46FBF74CFFCF
:1085000032463B4606460F4650465946FBF744FF67
:1085100002460B4630463946FBF788FD42464B463D
:1085200006460F4620462946FBF736FF04460D4611
:108530002B46304639462246FBF778FDC24B99421E
:10854000804689468A4640F3188101F13F4303F58E
:10855000E003034340F00782A3A3D3E9002330469E
:108560003946FBF763FD02460B46404649469046B6
:10857000994622462B46FBF757FD02460B464046DE
:108580004946FCF799F9002840F0ED81CAF30A53F7
:108590004FF48012A3F2FE3342FA03F35344AB4983
:1085A000C3F30A52A2F2FF3241FA02FCC3F31301F1
:1085B00041F48011C2F1140241FA02F2002023EAD0
:1085C0000C01BAF1000F00920B46024602DA009944
:1085D0004942009120462946FBF726FD009B1B05DA
:1085E000029302460B4604460D4630463946FBF7D9
:1085F0001DFD89464FF000087DA3D3E900234046C6
:108600004946FBF7C9FE22462B4682468B4640462A
:108610004946FBF709FD02460B4630463946FBF753
:1086200003FD75A3D3E90023FBF7B6FE74A3D3E9DA
:10863000002304460D4640464946FBF7ADFE024680
:108640000B4620462946FBF7F1FC06460F4632460C
:108650003B4650465946FBF7E9FC52465B4604460A
:108660000D46FBF7E1FC02460B4630463946FBF768
:10867000DBFC2246804689462B4620462946FBF7EE
:108680008BFE61A3D3E9002306460F46FBF784FE69
:108690005FA3D3E90023FBF7C7FC32463B46FBF759
:1086A0007BFE5DA3D3E90023FBF7C0FC32463B46CB
:1086B000FBF772FE5AA3D3E90023FBF7B5FC324661
:1086C0003B46FBF769FE58A3D3E90023FBF7AEFC5A
:1086D00032463B46FBF760FE02460B4620462946E3
:1086E000FBF7A2FC06460F4632463B46204629468B
:1086F000FBF752FE02460B463046394616461F46E9
:1087000000224FF08043FBF78FFC02460B463046B9
:108710003946FBF76BFF424606460F464B4620465E
:108720002946FBF739FE42464B46FBF77FFC0246E3
:108730000B4630463946FBF777FC22462B46FBF7C3
:1087400073FC02460B4600204149FBF76DFC029A80
:108750000B461344B3F5801FC0F24381194653EC16
:10876000182BFBF719FE41EC100B2DE4BBF1000FA9
:10877000FFF6A0AC9FED2E0B26E4DFF8DCC021F065
:108780000043634540F3E780324B0B4403430AD177
:1087900022462B46FBF748FC32463B46FCF782F864
:1087A00000283FF4F3AE24A3D3E9002351EC180BC7
:1087B000FBF7F2FD20A3D3E90023FBF7EDFD41EC2D
:1087C000100B01E49FED1E7BB0EE478AF0EE678A46
:1087D00086E6BBF1000FCDDA07F1004300EE106A28
:1087E00000EE903AFFF7F0BBFE822B654715973CF1
:1087F00000000000432EE63FEF39FAFE422EE63F2E
:10880000396CA80C615C20BED0A4BE726937663E8C
:10881000F16BD2C541BDBB3E2CDE25AF6A56113F80
:1088200093BDBE166CC1663F3E5555555555C53F67
:10883000000000000000000059F3F8C21F6EA501FF
:10884000000000000000F03FFFFF8F40FFFF0F001F
:108850000000F03F00346F3FFFCB9040984585DB30
:108860007D4B98453FF722AC51EC100B7A4B002220
:10887000FBF7DAFB68A3D3E9002304460D46FBF7B8
:108880008BFD67A3D3E9002382468B462046294609
:10889000FBF782FD714B41EC180B00222046294664
:1088A000FBF77AFD02460B465FA1D1E90001FBF719
:1088B000BBFB22462B46FBF76FFD02460B46002012
:1088C0006749FBF7B1FB2246804689462B46204686
:1088D0002946FBF761FD02460B4640464946FBF739
:1088E0005BFD53A3D3E90023FBF756FD02460B467D
:1088F00051EC180BFBF798FB8046894642464B46E5
:1089000050465946FBF792FB002052465B46044610
:108910000D4691E522462B4620462946FBF73CFDB5
:1089200041EC100BFFF750BB4B49002022462B4671
:10893000FBF75CFE41EC100BFFF746BB002B44D16C
:10894000C1F114014AFA01F000FA01F151455AD07F
:108950000093FFF717BB424A93425BDCDDE900124C
:108960000291009146E634A3D3E9002351EC180BA1
:10897000FBF712FD30A3D3E90023FBF70DFD41EC1B
:10898000100BFFF721BB009B012B7FF41DAB10EEFA
:10899000901A10EE102A01F1004343EC102BFFF760
:1089A00013BB9FED277BB0EE47CAF0EE67CA9FED81
:1089B000267BB0EE47DAF0EE67DA9FED257B4FF4C9
:1089C000802553EC172BFFF7EBBB45EC104B0092C7
:1089D00000F014F9009A002A7FF492AB0092FFF79E
:1089E00026BB41EC100B009800F0C2F951EC100BC3
:1089F000B5E600F00100C0F102010091002B3FF448
:108A0000C1AAFFF70DBB00F00100C0F10203009303
:108A1000FFF7B8BA1B15BBE5000000604715F73F2C
:108A200044DF5DF80BAE543E555555555555D53F71
:108A3000FE822B654715F73F9C7500883CE4377E26
:108A40000000004003B8E23F06D0CF43EBFD4C3EB0
:108A5000000000000000F83F0000F03F0000D03FA1
:108A60000000E03F2DE9F041634A55EC104BAA436A
:108A700000F09F80002D10EE10CA2B4654DD291502
:108A800063D0C3F31303A1F2FF37C90743F4801384
:108A900004D45B0003EBDC734FEA4C0C4FEADC724E
:108AA000002602EB43037F104FEA4C0C4FF0160EEA
:108AB00034464FF40012A118994202DC5B1A8C185C
:108AC00016445B00BEF1010E03EBDC734FEA520269
:108AD0004FEA4C0CEFD1754620204FF000420AE0DF
:108AE00044D04FEADC71013801EB43034FEA4C0CF0
:108AF0004FEA520243D0A34202EB0E01F0DD0029FF
:108B000001EB020E0ADBA0461B1B614588BF03F187
:108B1000FF33ACEB010C15444446E2E7BEF1000F15
:108B2000F1DB04F10108EFE725F00042224338D0E1
:108B3000002D4ED129464FEADC22153913464FEA63
:108B40004C5C002AF7D0D60250D400205B00DD0236
:108B5000044600F10100F9D51A4663460CFA00FC00
:108B6000C0F12000C340091B13438AE76145B8D810
:108B7000002901EB020ED1DB98460023C9E753EA36
:108B80000C0310D168087110F30701F17F5101F552
:108B9000001148BF40F0004001EB0753024643EC90
:108BA000102BBDE8F0816A1C16BF681C0136400816
:108BB000E9E710EE102A10EE100A2B462946FBF7C3
:108BC000EBFB22462B46FBF731FA41EC100BBDE8DC
:108BD000F08110EE102A20462946FBF725FA0246BE
:108BE0000B46FBF703FD41EC100BDAE76346202050
:108BF0004FF0FF34B6E700BF0000F07F51EC100BE0
:108C000010EE102A21F0004343EC102B704700BFF8
:108C100082B08DED000B019840F0004000F580100F
:108C2000C00F02B0704700BF9FED010B704700BF3F
:108C3000000000000000F87FF0B553EC102BC3F3E8
:108C40000A5CACF2FF31132910EE100A83B01C4607
:108C50004FEAD37E3ADC002930DB424D45FA01FC75
:108C600003EA0C0515432DD003EA5C0318434FEAD1
:108C70005C0C0CD024EA0C0C4FF48024132944FA29
:108C800001F10CBF4FF0004000204CEA01043649CE
:108C900001EBCE0E2346DEE900450246294620467A
:108CA000FBF7C4F9CDE90001DDE9000122462B46BE
:108CB000FBF7BAF941EC100B03B0F0BD23F0004113
:108CC000114324D143EC102B03B0F0BD332908DD50
:108CD000B1F5806FF6D11946FBF7A8F941EC100BFE
:108CE000F2E7ACF2134C4FF0FF3121FA0CF10A42DB
:108CF000E8D010EA51024FEA5103C8D020EA03033A
:108D00004FF0804040FA0CFC43EA0C00BFE7C3F38D
:108D100013031843144A4342034302EBCE0E1B0BCA
:108D2000620C03F40023520443EA02073B46DEE9E7
:108D3000006710EE102A30463946FBF777F9CDE987
:108D4000000132463B46DDE90001FBF76DF904F016
:108D5000004421F00041024641EA040343EC102B99
:108D600003B0F0BDFFFF0F00F8A10B0000000000F2
:108D700038B553EC102BC3F30A5104469C4689BB0B
:108D800010EE101A23F0004C5CEA010129D01946BC
:108D900000223D4B3D4D10EE100AFBF7FDFAAC42B0
:108DA00002460B4616DB8C46C1F30A513639214484
:108DB00040F2FE70814221DC002947DC11F1350FC1
:108DC00034DA4CF250318C4218DC002B26A1D1E968
:108DD000000144DB24A3D3E90023FBF7DDFA41ECD7
:108DE000100B38BD40F2FF708142E0D110EE100A46
:108DF0001946FBF71BF941EC100B38BD002B1CA1E9
:108E0000D1E9000107DB1AA3D3E90023FBF7C4FA79
:108E100041EC100B38BD18A1D1E9000114A3D3E92E
:108E20000023FBF7B9FA41EC100BF3E72CF0FF4CF1
:108E30002CF4E00C36314CEA01531046194600225E
:108E4000134BFBF7A9FA41EC100B38BD2CF0FF4C8B
:108E50002CF4E00C4CEA015343EC102B38BD08A174
:108E6000D1E90001B6E700BF59F3F8C21F6EA501B2
:108E70009C7500883CE4377E9C7500883CE437FE96
:108E800059F3F8C21F6EA58100005043B03CFFFFAC
:108E90000000903C002301461A46184600F06AB8CC
:108EA0000A44914200F1FF3300D1704710B511F828
:108EB000014B03F8014F9142F9D110BD0244034622
:108EC000934200D1704703F8011BF9E738B5104B06
:108ED0001D68AB6B0446B3B91820FDF74FFB024683
:108EE000A86320B90B4B0C484221FDF77FFB0B49CF
:108EF0000B4BC0E900130B4B83600B2383810021D4
:108F00000120C2E90401AB6B00221C615A6138BD2B
:108F1000A0E5032008A20B001FA20B000E33CDAB6F
:108F200034126DE6ECDE0500034611F8012B03F860
:108F3000012B002AF9D17047024B0146186800F056
:108F400003B800BFA0E5032037B5044608460D4628
:108F5000FCF768F8421C114620460192FDF736FBEB
:108F6000044618B1019A2946FFF79AFF204603B03C
:108F700030BD00002DE9F843DFF8B8800646D8F888
:108F800000001F460D46914600F056F8254B1C6820
:108F900034B9254C1C60254B13B11B68C4F88830CC
:108FA00063681F2B07DDD8F8000000F047F84FF08A
:108FB000FF30BDE8F8834EB3D4F8880088B91C4B65
:108FC00023B9D8F8000000F038F8F0E74FF48470C7
:108FD000FDF7D4FA0028F4D00023C0E94033C4F8E8
:108FE0008800636840F8239001229A4000EB8301D7
:108FF000D0F800311343C0F80031022EC1F8807060
:1090000002BFD0F804311343C0F804316368D8F8C4
:1090100000005A1C0233626044F8235000F00EF83E
:109020000020C6E7E8E703205CE70320000000001B
:109030007D650B0004E60320704770477047000011
:1090400035500B0071500B0099500B009D500B00D8
:10905000000000004F4E004C6967687473004F4673
:1090600046004C6576656C0042617474007B227426
:10907000656D70223A20002C202268756D223A20FE
:10908000002C20227072657373757265223A20007D
:109090002C2022616C746974756465223A20007D0D
:1090A00000424D4544617461000A102E0D011E00FE
:1090B00000000000000000000000000000000000B0
:1090C00000000078FC020303030302FC78000000A8
:1090D0000000000000FF7E0000028383838302FC07
:1090E000780000028383838302FC787EFF00808007
:1090F000808000FF7E78FC028383838302000078F7
:10910000FC02838383830200000002030303030342
:1091100002FC7878FC028383838302FC7878FC026B
:109120008383838302FC7800000000183C3C180015
:109130000000000060F0F06000000000000000008F
:1091400000000000001E3F40C0C0C0C0403F1E00E5
:1091500000000000000000FF7E1C3E41C1C1C1C1F3
:10916000410000000041C1C1C1C1413E1C000001DD
:109170000101010101FF7E000041C1C1C1C1413EA9
:109180001C1C3E41C1C1C1C1413E1C000000000089
:10919000000000FF7E1C3E41C1C1C1C1413E1C0018
:1091A0000041C1C1C1C1413E1C00000000183C3C4F
:1091B0001800000C30300B012000C0F87C3E3EFC53
:1091C000F8C0000000000080E078FEFE0000000013
:1091D0000000F07C3C3E3EFEFCE0000000007C3ED7
:1091E0003E3EFEF8C0000000000000000000F8FE57
:1091F000FE0000000000FEFE3E3E3E3E3E0000003F
:1092000000000080F0FC3E3E3EFC000000003E3EC0
:109210003E3E3E3E3EFEFE00000000C0F8FE3E7EAA
:10922000FCE00000000000E0FC7E3EFEF8C0000014
:109230000000000000C0E0C00000000000F0FF0FD0
:10924000000000F9FFFFF000000000070300FFFF2F
:10925000000000000000010000000000FFFF00000F
:1092600000000000000000FFFF0000000000000000
:10927000E0FF1FFFFF0000000000FFFF00000000F4
:10928000000000000000E0FF3F00000000000000C0
:1092900000000000000000C0FC7F0300000000FF91
:1092A000FF000000FFFF00000000FEFF03000000C1
:1092B000FFFFF00000000000003F7F3F00000000C3
:1092C00000FFFF0000E0FF1F00FFFF0000000000A4
:1092D0000000FFFF00000000000000000000E0FEB2
:1092E0001F010000000000F8F8FCFFC700000000AC
:1092F0000000C0FE3F0300FFFF00000000003F3FF2
:109300003E7EFCF8E00000000000FFFF80F07C7C67
:10931000F8F00000000000000080F8FF07000000E7
:10932000000000019FFFF8FE1F0100000000FFFF8A
:10933000C0000080FFFFFF000000000000000000F0
:109340000000000000FFFFC0FC7F030000FFFF00E3
:10935000000000000000FFFF00000000000000000F
:10936000E0FE0F0100000000000000000000010FFF
:10937000FFF8000000F8FFE7E0E0E0FFFFE0E0E0DA
:109380000000000000000007FFFE00000000FFFFDB
:10939000FF03000001FFFF0000000000F0FF0F00CE
:1093A000000000000000C0FC3F03031FFFFCC000E2
:1093B0000000000F1F3E3E0F01FFFF0000000000F5
:1093C00000008000000000000007FFFF0700000011
:1093D000FCFF0700000000000000FFFF000000008D
:1093E0000000E0FE0F000000000000000000000090
:1093F000000000C0FF7F000000030303030303FF1E
:10940000FF03030300000000000000C0FF7F000016
:1094100000000FFFFF80000080FF7F00000000FEC3
:10942000FF030000000000000000FFFF80000000BC
:1094300080FFFF000000000000000080FCFF07002C
:109440000000000000FFFFFF000000000000031FFD
:109450003F7C7C3F1F0300000000007C7C7C7F7F02
:109460007C7C7C0000007F7F7C7C7C7C7C7C0000A2
:1094700000003F7E7C7C7E1F070000000000000093
:109480000000007F7F00000000001F3E7C7C3E1F2C
:1094900007000000000000031F7F7C7C3F070000E6
:1094A0000000007F7F000000000000000000011F9E
:1094B0003F7E7C7E3F1F01000000003E7C7C7E3FA3
:1094C0000F0100000000000000000100000000008B
:1094D00000050800FF0C4B00000000003E5B4F5BE6
:1094E0003E3E6B4F6B3E1C3E7C3E1C183C7E3C1847
:1094F0001C577D571C1C5E7F5E1C00183C1800FF2B
:10950000E7C3E7FF0018241800FFE7DBE7FF304858
:109510003A060E2629792926407F050507407F0552
:10952000253F5A3CE73C5A7F3E1C1C08081C1C3E49
:109530007F14227F22145F5F005F5F06097F017F37
:10954000006689956A606060606094A2FFA29408DA
:10955000047E040810207E201008082A1C08081C1D
:109560002A08081E101010100C1E0C1E0C30383E5D
:109570003830060E3E0E06000000000000005F00BE
:10958000000007000700147F147F14242A7F2A128A
:109590002313086462364956205000080703000070
:1095A0001C2241000041221C002A1C7F1C2A0808A2
:1095B0003E080800807030000808080808000060B5
:1095C000600020100804023E5149453E00427F40A1
:1095D0000072494949462141494D331814127F1000
:1095E00027454545393C4A4949314121110907364A
:1095F00049494936464949291E00001400000040E7
:1096000034000000081422411414141414004122E0
:10961000140802015909063E415D594E7C1211128F
:109620007C7F494949363E414141227F4141413E8B
:109630007F494949417F090909013E414151737FF1
:109640000808087F00417F41002040413F017F081A
:109650001422417F404040407F021C027F7F04086B
:10966000107F3E4141413E7F090909063E4151219B
:109670005E7F09192946264949493203017F0103C2
:109680003F4040403F1F2040201F3F4038403F6345
:109690001408146303047804036159494D43007F9F
:1096A0004141410204081020004141417F04020170
:1096B0000204404040404000030708002054547812
:1096C000407F284444383844444428384444287F60
:1096D000385454541800087E090218A4A49C787FBA
:1096E0000804047800447D40002040403D007F1085
:1096F00028440000417F40007C047804787C080402
:1097000004783844444438FC1824241818242418B5
:10971000FC7C08040408485454542404043F4424A2
:109720003C4040207C1C2040201C3C4030403C44BD
:10973000281028444C9090907C4464544C44000879
:1097400036410000007700000041360800020102A7
:1097500004023C2623263C1EA1A161123A4040206F
:109760007A385454555921555579412154547841EA
:10977000215554784020545579400C1E52721239AC
:109780005555555939545454593955545458000065
:10979000457C410002457D420001457C40F0292482
:1097A00029F0F0282528F07C545545002054547C9D
:1097B000547C0A097F493249494932324848483283
:1097C000324A4848303A4141217A3A4240207800B2
:1097D0009DA0A07D39444444393D4040403D3C2457
:1097E000FF2424487E4943662B2FFC2F2BFF092999
:1097F000F620C0887E090320545479410000447D3E
:10980000413048484A32384040227A007A0A0A7287
:109810007D0D19317D2629292F2826292929263031
:10982000484D4020380808080808080808382F1054
:10983000C8ACBA2F102834FA00007B000008142AA4
:10984000142222142A1408AA005500AAAA55AA55BF
:10985000AA000000FF00101010FF00141414FF00F5
:109860001010FF00FF1010F010F0141414FC00147E
:1098700014F700FF0000FF00FF1414F404FC14149C
:1098800017101F10101F101F1414141F0010101099
:10989000F0000000001F101010101F10101010F02A
:1098A00010000000FF101010101010101010FF100A
:1098B000000000FF140000FF00FF00001F10170051
:1098C00000FC04F414141710171414F404F400002A
:1098D000FF00F714141414141414F700F7141414DC
:1098E000171410101F101F141414F4141010F0107B
:1098F000F000001F101F0000001F14000000FC14E7
:109900000000F010F01010FF10FF141414FF1410DA
:1099100010101F00000000F010FFFFFFFFFFF0F02D
:10992000F0F0F0FFFFFF0000000000FFFF0F0F0F3F
:109930000F0F38444438447C2A2A3E147E02020623
:1099400006027E027E0263554941633844443C046A
:10995000407E201E2006027E020299A5E7A5991CE2
:109960002A492A1C4C7201724C304A4D4D30304805
:10997000784830BC625A463D3E494949007E010163
:10998000017E2A2A2A2A2A44445F444440514A44F8
:109990004040444A51400000FF0103E080FF0000C6
:1099A00008086B6B083612362436060F090F0600BE
:1099B0000018180000001010003040FF0101001FC7
:1099C00001011E00191D1712003C3C3C3C00000028
:1099D00000000810206002380000000000000000B5
:1099E000000000FE0000000000000E000E0000005D
:1099F00000D0BE90D0BE9000001C62FFC28000006C
:109A00000C12924CB0880600807C62B21CC0000030
:109A100000000E0E0000000000E01804020200002A
:109A20000002020418E000000024187E1824000040
:109A3000808080F080808000000000000000000036
:109A40000080808080000000000000000000000016
:109A50000000806018060000F804C2320CF8000014
:109A6000000404FE0000000000028242221C0000EC
:109A70000002222222DC0000C0A09884FE80800028
:109A8000001E121222C20000F844222222C000004E
:109A9000000202C2320A0600008C5222528C0000E0
:109AA0003C42424226F80000000030300000000036
:109AB0000000303000000000808040402020100076
:109AC0004040404040400000102020404080800046
:109AD00000028242221C0000000000000000000082
